:100000000C942A000C9447000C9447000C94470071
:100010000C9447000C9447000C9413140C94470064
:100020000C9447000C9447000C9447000C94470034
:100030000C9447000C9447000C9447000C94470024
:100040000C9447000C9447000C9447000C94470014
:100050000C94470011241FBECFE5D8E0DEBFCDBF12
:1000600012E0A0E6B0E0EEEAF5E502C005900D92E0
:10007000A23CB107D9F712E0A2ECB2E001C01D9298
:10008000AA3CB107E1F70E9471140C94D52A0C9494
:100090000000EF92FF920F931F937B018C0120E0F1
:1000A00030E040E05FE40E94F50388238CF0C80153
:1000B000B70120E030E040E05FE40E94C1010E940F
:1000C00055049B01AC01205030404040504806C0D0
:1000D000C801B7010E9455049B01AC01B901CA01D6
:1000E0001F910F91FF90EF900895A0E0B0E0EBE733
:1000F000F0E00C949E2ADC012B01FA019C919230D5
:1001000008F439C1EB018881823008F433C194309E
:1001100069F4843009F02FC111969C91119789815F
:10012000981709F428C1AEE9B2E025C1843009F47A
:1001300021C18230A9F4923009F01DC19A01AD01AC
:1001400088E0EA010990AE01E90109929E0181501F
:10015000C1F7E201898111969C918923818308C1AD
:10016000923009F407C112962D903C901397EB0141
:100170008A819B811496AD90BD90CD90DC901797AD
:10018000EC80FD800E811F819101281B390BB90184
:1001900037FF04C066277727621B730B6032710537
:1001A0000CF061C0121613066CF537014801062EDB
:1001B00004C096948794779467940A94D2F721E0C8
:1001C00030E040E050E004C0220F331F441F551FB1
:1001D0006A95D2F721503040404050402E213F21B7
:1001E00040235123211531054105510521F021E01E
:1001F00030E040E050E079018A01E628F72808293C
:1002000019293CC0232BD1F1260E371E350146019A
:10021000062E04C096948794779467940A94D2F734
:1002200021E030E040E050E004C0220F331F441FC3
:10023000551F6A95D2F721503040404050402A2146
:100240003B214C215D21211531054105510521F04E
:1002500021E030E040E050E059016A01A628B728CB
:10026000C828D9280BC0821593052CF01C01AA249C
:10027000BB24650103C0EE24FF24870111969C91E5
:10028000D20111968C91981709F445C0992339F041
:10029000A80197012A193B094C095D0906C0A6016E
:1002A00095012E193F09400B510B57FD08C01182D3
:1002B0003382228224833583468357831DC081E0A5
:1002C00081833382228288279927DC01821B930B4A
:1002D000A40BB50B84839583A683B7830DC0220F2F
:1002E000331F441F551F24833583468357838281E0
:1002F000938101979383828324813581468157813D
:10030000DA01C9010197A109B1098F5F9F4FAF4F72
:10031000BF4328F30BC0918333822282EA0CFB1C7B
:100320000C1D1D1DE482F5820683178383E0808304
:10033000248135814681578157FF1AC0C901AA27F8
:1003400097FDA095BA2F81709070A070B0705695EF
:10035000479537952795822B932BA42BB52B848318
:100360009583A683B7838281938101969383828349
:10037000DF0101C0D201CD01CDB7DEB7E2E10C94BF
:10038000BA2AA0E2B0E0E7ECF1E00C94AA2A698373
:100390007A838B839C832D833E834F835887E9E048
:1003A000EE2EF12CEC0EFD1ECE010196B7010E943F
:1003B0007E058E010F5E1F4FCE010596B8010E948B
:1003C0007E058A8991E089278A8BC701B801AE0131
:1003D000475E5F4F0E9475000E94A904A096E6E068
:1003E0000C94C62AA0E2B0E0E8EFF1E00C94AA2A4F
:1003F00069837A838B839C832D833E834F835887C5
:10040000F9E0EF2EF12CEC0EFD1ECE010196B701A6
:100410000E947E058E010F5E1F4FCE010596B8012A
:100420000E947E05C701B801AE01475E5F4F0E9482
:1004300075000E94A904A096E6E00C94C62AA0E2EA
:10044000B0E0E5E2F2E00C949E2A69837A838B8324
:100450009C832D833E834F835887CE010196BE0136
:10046000675F7F4F0E947E05CE010596BE016F5EDD
:100470007F4F0E947E059985923088F0898982306D
:10048000C8F0943019F4823051F404C0843029F457
:10049000923081F48EE992E0C6C0923049F420E0B7
:1004A0009A858A89981321E02A87CE010996BBC0D4
:1004B000823049F420E09A858A89981321E02A8BBA
:1004C000CE014196B0C02D843E844F8458886D88FB
:1004D0007E888F88988CEE24FF248701AA24BB2471
:1004E000650140E050E060E070E0E0E0F0E0C10174
:1004F00081709070892BE9F0E60CF71C081D191D1E
:100500009A01AB012A0D3B1D4C1D5D1D80E090E062
:10051000A0E0B0E0E614F7040805190520F481E036
:1005200090E0A0E0B0E0BA01A901480F591F6A1F8E
:100530007B1FAA0CBB1CCC1CDD1C97FE08C081E0F5
:1005400090E0A0E0B0E0A82AB92ACA2ADB2A3196B6
:10055000E032F10549F0660C771C881C991C569412
:10056000479437942794C3CFFA85EA892B893C892D
:100570008B859C85280F391F2E5F3F4F17C0CA01FE
:1005800081709070892B61F016950795F794E79428
:1005900080E090E0A0E0B0E8E82AF92A0A2B1B2BC3
:1005A00076956795579547952F5F3F4F77FDE7CF36
:1005B0000CC0440F551F661F771F17FD4160EE0CDE
:1005C000FF1C001F111F21503040403090E05907A0
:1005D00090E0690790E4790760F32B8F3C8FDB0193
:1005E000CA018F779070A070B07080349105A1051A
:1005F000B10561F447FD0AC0E114F10401051105DC
:1006000029F0405C5F4F6F4F7F4F40781A8EFE1786
:1006100011F081E08A8F4D8F5E8F6F8F78A383E01A
:10062000898FCE0149960E94A904A096E2E10C941C
:10063000BA2AA8E1B0E0EFE1F3E00C94A62A6983BE
:100640007A838B839C832D833E834F835887B9E0C5
:10065000EB2EF12CEC0EFD1ECE010196B7010E948F
:100660007E058E010F5E1F4FCE010596B8010E94D8
:100670007E052985223008F47EC03989323010F495
:10068000B8017CC08A859A8989278A87243011F02D
:10069000223031F4231709F06EC06EE972E06EC0AB
:1006A000343039F41D861E861F86188A1C861B86E8
:1006B00004C0323021F484E08987B7015FC02B8504
:1006C0003C858B899C89281B390B3C872B87ED84C3
:1006D000FE840F851889AD88BE88CF88D88CEA142F
:1006E000FB040C051D0540F4EE0CFF1C001F111F40
:1006F000215030403C872B8720E030E040E050E044
:1007000080E090E0A0E0B0E460E070E0EA14FB0478
:100710000C051D0540F0282B392B4A2B5B2BEA18C2
:10072000FB080C091D09B695A79597958795EE0CC2
:10073000FF1C001F111F6F5F7F4F6F31710531F775
:10074000DA01C9018F779070A070B0708034910584
:10075000A105B10561F427FD0AC0E114F10401050A
:10076000110529F0205C3F4F4F4F5F4F20782D87B8
:100770003E874F87588BBE01675F7F4FCB010E943A
:10078000A9046896EAE00C94C22AA8E1B0E0EBEC78
:10079000F3E00C94AA2A69837A838B839C832D834C
:1007A0003E834F83588789E0E82EF12CEC0EFD1E26
:1007B000CE010196B7010E947E058E010F5E1F4F8C
:1007C000CE010596B8010E947E058985823040F0F1
:1007D0008989823028F0C701B8010E94F60501C05E
:1007E0008FEF6896E6E00C94C62AA8E1B0E0EBEF44
:1007F000F3E00C94AA2A69837A838B839C832D83EC
:100800003E834F83588789E0E82EF12CEC0EFD1EC5
:10081000CE010196B7010E947E058E010F5E1F4F2B
:10082000CE010596B8010E947E058985823040F090
:100830008989823028F0C701B8010E94F60501C0FD
:100840008FEF6896E6E00C94C62AA8E1B0E0EBE2F0
:10085000F4E00C94AA2A69837A838B839C832D838A
:100860003E834F83588789E0E82EF12CEC0EFD1E65
:10087000CE010196B7010E947E058E010F5E1F4FCB
:10088000CE010596B8010E947E058985823040F030
:100890008989823028F0C701B8010E94F60501C09D
:1008A00081E06896E6E00C94C62AACE0B0E0EBE5A7
:1008B000F4E00C94AE2A69837A838B839C83CE0107
:1008C0000196BE016B5F7F4F0E947E058D81823055
:1008D00061F1823050F1843021F48E81882351F10E
:1008E0002EC02F81388537FD20C06E812F31310514
:1008F0001CF06623F9F023C08EE190E0821B930B7D
:1009000029853A854B855C8504C056954795379572
:1009100027958A95D2F76623B1F05095409530958A
:1009200021953F4F4F4F5F4F0EC020E030E040E039
:1009300050E009C02FEF3FEF4FEF5FE704C020E02A
:1009400030E040E050E8B901CA012C96E2E00C9496
:10095000CA2ADF92EF92FF920F931F93FC01E4806B
:10096000F58006811781D1808081823048F480E053
:1009700090E0A0E1B0E0E82AF92A0A2B1B2BA5C0E1
:10098000843009F49FC0823021F4EE24FF248701D3
:1009900005C0E114F1040105110519F4E0E0F0E0EF
:1009A00096C0628173819FEF623879070CF05BC05B
:1009B00022E83FEF261B370B2A3131052CF020E0CF
:1009C00030E040E050E02AC0B801A701022E04C088
:1009D00076956795579547950A94D2F781E090E010
:1009E000A0E0B0E004C0880F991FAA1FBB1F2A9582
:1009F000D2F70197A109B1098E219F21A023B1232C
:100A00000097A105B10521F081E090E0A0E0B0E001
:100A10009A01AB01282B392B4A2B5B2BDA01C90138
:100A20008F779070A070B07080349105A105B105EA
:100A300039F427FF09C0205C3F4F4F4F5F4F04C080
:100A4000215C3F4F4F4F5F4FE0E0F0E02030A0E0EF
:100A50003A07A0E04A07A0E45A0710F0E1E0F0E00E
:100A600079018A0127C06038710564F5FB01E158FE
:100A7000FF4FD801C7018F779070A070B07080349D
:100A80009105A105B10539F4E7FE0DC080E490E0C1
:100A9000A0E0B0E004C08FE390E0A0E0B0E0E80E9A
:100AA000F91E0A1F1B1F17FF05C016950795F7941F
:100AB000E794319687E016950795F794E7948A9521
:100AC000D1F705C0EE24FF248701EFEFF0E06E2F91
:100AD000679566276795902F9F77D794DD24D794E5
:100AE0008E2F8695492F462B582F5D29B701CA01B5
:100AF0001F910F91FF90EF90DF900895FC01DB01B3
:100B0000408151812281622F6F7770E0221F22275E
:100B1000221F9381892F880F822B282F30E0991F65
:100B20009927991F11969C93119721153105A9F5C5
:100B3000411551056105710511F482E037C082E865
:100B40009FEF13969C938E9312979A01AB0167E0E7
:100B5000220F331F441F551F6A95D1F783E08C93F2
:100B60000DC0220F331F441F551F12968D919C916B
:100B70001397019713969C938E931297203080E0E1
:100B8000380780E0480780E4580758F314962D93FF
:100B90003D934D935C93179708952F3F310579F45A
:100BA000411551056105710519F484E08C93089590
:100BB00064FF03C081E08C9312C01C9210C02F57B9
:100BC000304013963C932E93129783E08C9387E0EA
:100BD000440F551F661F771F8A95D1F770641496CE
:100BE0004D935D936D937C93179708951F93DC014C
:100BF000FB019C91923008F447C08081823008F458
:100C000043C0943051F411961C91843099F5818140
:100C1000682F70E0611B71093FC0843021F0923071
:100C200031F48230B9F18181882389F12DC0119688
:100C30001C9111978230F1F081811817D9F4129626
:100C40002D913C911397828193818217930794F0A1
:100C500028173907BCF014968D919D910D90BC9189
:100C6000A02D2481358146815781281739074A07ED
:100C70005B0718F4112341F00AC082179307A407F9
:100C8000B50740F4112319F061E070E005C06FEF83
:100C90007FEF02C060E070E0CB011F910895DF9309
:100CA000CF93CDB7DEB7A7E2B0E0E7E2F0E0808116
:100CB00080648C93A7E2B0E0E7E2F0E080818F7778
:100CC0008C93A7E2B0E0E7E2F0E080818F7D8C9327
:100CD000A6E2B0E0E6E2F0E080818F7B8C93A6E2B2
:100CE000B0E0E6E2F0E080818E7F8C93A6E2B0E097
:100CF000E6E2F0E0808182608C93A6E2B0E0E6E27A
:100D0000F0E0808184608C93A6E2B0E0E6E2F0E05F
:100D1000808180688C93CF91DF910895DF93CF938A
:100D200000D00F92CDB7DEB78B831A8219828B81E8
:100D3000803270F5A7E2B0E0E7E2F0E08081807EEB
:100D40008C93A7E2B0E0E7E2F0E090818B81892B01
:100D50008C93A6E2B0E0E6E2F0E0808180648C93C0
:100D6000E6E2F0E0808182958F70882F90E08170BC
:100D700090700097A9F3A6E2B0E0E6E2F0E080818F
:100D800080618C93E4E2F0E0808191819A83898391
:100D900089819A810F900F900F90CF91DF910895E4
:100DA000DF93CF93CDB7DEB7EAE3F0E08CE7808343
:100DB000E7E3F0E08FE08083E4E3F0E08FEF80830F
:100DC000E1E3F0E08FEF8083EBE3F0E080E8808305
:100DD000E8E3F0E08FEF8083E5E3F0E01082E2E308
:100DE000F0E01082CF91DF910895DF93CF93CDB7DC
:100DF000DEB72D970FB6F894DEBF0FBECDBF898347
:100E00006A834B838981282F30E03D872C878C852E
:100E10009D858130910509F44FC02C853D85223098
:100E200031052CF48C859D85009771F0ECC02C85E4
:100E30003D852230310509F477C08C859D8583304E
:100E4000910509F4A9C0DFC08B81282F30E03B87D2
:100E50002A878A859B85009731F02A853B8521303A
:100E60003105B1F0D0C0AAE3B0E0EAE3F0E0808160
:100E7000482F8A81282F30E081E090E0022E02C0C6
:100E8000880F991F0A94E2F7809584238C93BBC046
:100E9000AAE3B0E0EAE3F0E08081482F8A81282FBE
:100EA00030E081E090E0022E02C0880F991F0A9482
:100EB000E2F7842B8C93A7C08B81282F30E03987F1
:100EC000288788859985009731F0288539852130D4
:100ED0003105B1F098C0A7E3B0E0E7E3F0E080812E
:100EE000482F8A81282F30E081E090E0022E02C056
:100EF000880F991F0A94E2F7809584238C9383C00E
:100F0000A7E3B0E0E7E3F0E08081482F8A81282F53
:100F100030E081E090E0022E02C0880F991F0A9411
:100F2000E2F7842B8C936FC08B81282F30E03F83B6
:100F30002E838E819F81009731F02E813F81213059
:100F40003105B1F060C0A4E3B0E0E4E3F0E08081FB
:100F5000482F8A81282F30E081E090E0022E02C0E5
:100F6000880F991F0A94E2F7809584238C934BC0D5
:100F7000A4E3B0E0E4E3F0E08081482F8A81282FE9
:100F800030E081E090E0022E02C0880F991F0A94A1
:100F9000E2F7842B8C9337C08B81282F30E03D8380
:100FA0002C838C819D81009731F02C813D812130F3
:100FB0003105B1F028C0A1E3B0E0E1E3F0E08081C9
:100FC000482F8A81282F30E081E090E0022E02C075
:100FD000880F991F0A94E2F7809584238C9313C09D
:100FE000A1E3B0E0E1E3F0E08081482F8A81282F7F
:100FF00030E081E090E0022E02C0880F991F0A9431
:10100000E2F7842B8C932D960FB6F894DEBF0FBEBB
:10101000CDBFCF91DF910895DF93CF93CDB7DEB7EA
:101020002D970FB6F894DEBF0FBECDBF89836A83BC
:101030004B838981282F30E03D872C878C859D85C7
:101040008130910509F44FC02C853D852230310552
:101050002CF48C859D85009771F0EBC02C853D8527
:101060002230310509F477C08C859D858330910548
:1010700009F4A9C0DEC08B81282F30E03B872A8786
:101080008A859B850097D1F02A853B8521303105E3
:1010900009F0CFC0ABE3B0E0EBE3F0E08081482F94
:1010A0008A81282F30E081E090E0022E02C0880F74
:1010B000991F0A94E2F7842B8C93BBC0ABE3B0E09A
:1010C000EBE3F0E08081482F8A81282F30E081E037
:1010D00090E0022E02C0880F991F0A94E2F78095D3
:1010E00084238C93A6C08B81282F30E039872887F2
:1010F000888599850097D1F028853985213031057B
:1011000009F097C0A8E3B0E0E8E3F0E08081482F61
:101110008A81282F30E081E090E0022E02C0880F03
:10112000991F0A94E2F7842B8C9383C0A8E3B0E064
:10113000E8E3F0E08081482F8A81282F30E081E0C9
:1011400090E0022E02C0880F991F0A94E2F7809562
:1011500084238C936EC08B81282F30E03F832E83B5
:101160008E819F810097D1F02E813F812130310502
:1011700009F05FC0A5E3B0E0E5E3F0E08081482F2F
:101180008A81282F30E081E090E0022E02C0880F93
:10119000991F0A94E2F7842B8C934BC0A5E3B0E02F
:1011A000E5E3F0E08081482F8A81282F30E081E05C
:1011B00090E0022E02C0880F991F0A94E2F78095F2
:1011C00084238C9336C08B81282F30E03D832C8381
:1011D0008C819D810097C9F02C813D8121303105A2
:1011E00041F5A2E3B0E0E2E3F0E08081482F8A819C
:1011F000282F30E081E090E0022E02C0880F991F76
:101200000A94E2F7842B8C9314C0A2E3B0E0E2E3EB
:10121000F0E08081482F8A81282F30E081E090E043
:10122000022E02C0880F991F0A94E2F7809584234A
:101230008C932D960FB6F894DEBF0FBECDBFCF9125
:10124000DF910895DF93CF9300D000D0CDB7DEB704
:1012500089836A838981282F30E03C832B838B81AB
:101260009C8181309105D1F02B813C812230310568
:101270002CF48B819C81009761F01EC02B813C81F6
:101280002230310581F08B819C818330910581F082
:1012900013C0EAE3F0E08A8180830EC0E7E3F0E068
:1012A0008A81808309C0E4E3F0E08A81808304C0FE
:1012B000E1E3F0E08A8180830F900F900F900F9010
:1012C000CF91DF910895DF93CF9300D000D0CDB7B9
:1012D000DEB789836A838981282F30E03C832B83A2
:1012E0008B819C8181309105D1F02B813C81223012
:1012F00031052CF48B819C81009761F01EC02B81FD
:101300003C812230310581F08B819C8183309105B5
:1013100081F013C0EBE3F0E08A8180830EC0E8E344
:10132000F0E08A81808309C0E5E3F0E08A81808370
:1013300004C0E2E3F0E08A8180830F900F900F9069
:101340000F90CF91DF910895DF93CF93CDB7DEB7A4
:1013500027970FB6F894DEBF0FBECDBF8A836B838D
:101360008FEF89838A81282F30E03E832D834D8142
:101370005E814130510559F18D819E818230910508
:1013800034F42D813E812115310569F05CC04D8119
:101390005E814230510579F18D819E8183309105C6
:1013A00009F43DC050C0E9E3F0E08081282F30E02F
:1013B0008B81882F90E0A90102C0559547958A95A9
:1013C000E2F7CA018170898359815C833DC0E6E3FD
:1013D000F0E08081282F30E08B81882F90E0A901F8
:1013E00002C0559547958A95E2F7CA0181708983B5
:1013F00059815C8329C0E3E3F0E08081282F30E04D
:101400008B81882F90E0A90102C0559547958A9558
:10141000E2F7CA018170898359815C8315C0E0E3DA
:10142000F0E08081282F30E08B81882F90E0A901A7
:1014300002C0559547958A95E2F7CA018170898364
:1014400059815C8301C002C08C818F838F81279674
:101450000FB6F894DEBF0FBECDBFCF91DF910895D8
:10146000DF93CF9300D000D0CDB7DEB789836A83F6
:101470008981282F30E03C832B838B819C818130B4
:10148000910549F12B813C81223031052CF48B816F
:101490009C81009761F05AC02B813C81223031053C
:1014A00071F18B819C8183309105E9F14FC0ABE3F1
:1014B000B0E0EBE3F0E08081482F8A81282F30E014
:1014C00081E090E0022E02C0880F991F0A94E2F793
:1014D00084278C933BC0A8E3B0E0E8E3F0E0808190
:1014E000482F8A81282F30E081E090E0022E02C050
:1014F000880F991F0A94E2F784278C9327C0A5E3ED
:10150000B0E0E5E3F0E08081482F8A81282F30E0C9
:1015100081E090E0022E02C0880F991F0A94E2F742
:1015200084278C9313C0A2E3B0E0E2E3F0E0808173
:10153000482F8A81282F30E081E090E0022E02C0FF
:10154000880F991F0A94E2F784278C930F900F90CD
:101550000F900F90CF91DF910895DF93CF9300D03C
:1015600000D000D0CDB7DEB789836A838981282F68
:1015700030E03E832D838D819E8181309105D1F0B5
:101580002D813E812230310561F18D819E81009750
:1015900009F045C0A5E5B0E0E5E5F0E080818C7F8D
:1015A0008C93A5E5B0E0E5E5F0E090818A81892B98
:1015B0008C9335C0A5E5B0E0E5E5F0E08081837F60
:1015C0008C93A5E5B0E0E5E5F0E08081282F8A81E5
:1015D000882F90E0880F991F880F991F822B8C937A
:1015E0001EC08A81282F30E03C832B838B819C8115
:1015F0008230910569F02B813C812330310579F4EB
:10160000A4E5B0E0E4E5F0E0808180648C9307C05D
:10161000A4E5B0E0E4E5F0E080818F7B8C93269632
:101620000FB6F894DEBF0FBECDBFCF91DF91089506
:10163000DF93CF9300D00F92CDB7DEB78983898136
:10164000282F30E03B832A838A819B81813091055A
:1016500089F02A813B8122303105A1F08A819B816A
:101660000097B9F4A5E5B0E0E5E5F0E080818160A0
:101670008C930FC0A5E5B0E0E5E5F0E080818460E3
:101680008C9307C0A4E5B0E0E4E5F0E080818064DD
:101690008C930F900F900F90CF91DF910895DF936F
:1016A000CF9300D00F92CDB7DEB789838981282FE1
:1016B00030E03B832A838A819B818130910589F0C8
:1016C0002A813B8122303105A1F08A819B810097DC
:1016D000B9F4A5E5B0E0E5E5F0E080818E7F8C937C
:1016E0000FC0A5E5B0E0E5E5F0E080818B7F8C934D
:1016F00007C0A4E5B0E0E4E5F0E080818F7B8C9347
:101700000F900F900F90CF91DF910895DF93CF93BB
:1017100000D000D00F92CDB7DEB789837B836A8378
:101720008A819B81009739F18981282F30E03D83A0
:101730002C838C819D818130910581F02C813D81AC
:101740002230310591F08C819D810097A1F48A812E
:101750009B819093C3028093C2020DC08A819B81BA
:101760009093C5028093C40206C08A819B819093A6
:10177000C7028093C6020F900F900F900F900F90AA
:10178000CF91DF9108951F920F920FB60F921124FF
:101790002F933F934F935F936F937F938F939F9379
:1017A000AF93BF93EF93FF93DF93CF93CDB7DEB7A4
:1017B0008091C2029091C302009729F0E091C20289
:1017C000F091C3020995CF91DF91FF91EF91BF9105
:1017D000AF919F918F917F916F915F914F913F91C9
:1017E0002F910F900FBE0F901F9018951F920F9280
:1017F0000FB60F9211242F933F934F935F936F93E4
:101800007F938F939F93AF93BF93EF93FF93DF9358
:10181000CF93CDB7DEB78091C4029091C5020097F7
:1018200029F0E091C402F091C5020995CF91DF91B2
:10183000FF91EF91BF91AF919F918F917F916F91A8
:101840005F914F913F912F910F900FBE0F901F907E
:1018500018951F920F920FB60F9211242F933F935A
:101860004F935F936F937F938F939F93AF93BF93A8
:10187000EF93FF93DF93CF93CDB7DEB78091C6028E
:101880009091C702009729F0E091C602F091C7023B
:101890000995CF91DF91FF91EF91BF91AF919F910A
:1018A0008F917F916F915F914F913F912F910F9009
:1018B0000FBE0F901F901895DF93CF93CDB7DEB773
:1018C000AFE5B0E0EFE5F0E0808180688C93CF91E8
:1018D000DF910895DF93CF93CDB7DEB7AFE5B0E0EA
:1018E000EFE5F0E080818F778C93CF91DF910895C1
:1018F000DF93CF93CDB7DEB763970FB6F894DEBF13
:101900000FBECDBF8FEF8B8B1F861A8ADAC08A89F4
:10191000882F90E0FC01EA54FD4F908181E0692F0F
:1019200040E00E940C08198AB6C08989882F90E08F
:10193000FC01E654FD4F908181E0692F0E94A409CB
:10194000888B8889882309F0A3C080E090E0A0EF0D
:10195000B1E48B879C87AD87BE876B857C858D8541
:101960009E8520E030E04AEF54E40E941F02DC0133
:10197000CB018F839887A987BA876F8178858985FE
:101980009A8520E030E040E85FE30E942504882348
:101990002CF481E090E09E838D833FC06F81788539
:1019A00089859A8520E03FEF4FE757E40E94C50301
:1019B00018164CF56B857C858D859E8520E030E082
:1019C00040E251E40E941F02DC01CB01BC01CD01C9
:1019D0000E944900DC01CB019E838D830FC088ECFF
:1019E00090E09C838B838B819C810197F1F79C8392
:1019F0008B838D819E8101979E838D838D819E81B6
:101A0000009769F714C06F81788589859A850E944F
:101A10004900DC01CB019E838D838D819E819A8359
:101A2000898389819A810197F1F79A8389838989CA
:101A3000882F90E0FC01E654FD4F908181E0692FF2
:101A40000E94A409888B0CC08989882F90E0FC0132
:101A5000E654FD4F908181E0692F0E94A409888B94
:101A60008889882389F38A89482F50E08989282F1B
:101A700030E0CA01880F991F880F991F820F931FAA
:101A8000FC01EA55FD4F80818B8B81E08F8707C079
:101A900089898F5F898B8989843008F446CF8A8948
:101AA000882F90E0FC01EA54FD4F908181E0692F7E
:101AB00041E00E940C088F85813039F08A898F5F60
:101AC0008A8B8A89843008F422CF8B8963960FB67B
:101AD000F894DEBF0FBECDBFCF91DF910895DF93A5
:101AE000CF93CDB7DEB72F970FB6F894DEBF0FBEFA
:101AF000CDBF8F8783E060E041E00E940C0883E067
:101B000061E040E00E940C0882E06F850E9463095A
:101B100083E062E041E00E940C0880E090E0A0E0F9
:101B2000B0E48B879C87AD87BE876B857C858D8570
:101B30009E8520E030E04AEF54E40E941F02DC0161
:101B4000CB018F839887A987BA876F81788589852C
:101B50009A8520E030E040E85FE30E942504882376
:101B60002CF481E090E09E838D833FC06F81788567
:101B700089859A8520E03FEF4FE757E40E94C5032F
:101B800018164CF56B857C858D859E8520E030E0B0
:101B900040E251E40E941F02DC01CB01BC01CD01F7
:101BA0000E944900DC01CB019E838D830FC088EC2D
:101BB00090E09C838B838B819C810197F1F79C83C0
:101BC0008B838D819E8101979E838D838D819E81E4
:101BD000009769F714C06F81788589859A850E947E
:101BE0004900DC01CB019E838D838D819E819A8388
:101BF000898389819A810197F1F79A83898383E0A8
:101C000062E040E00E940C082F960FB6F894DEBF09
:101C10000FBECDBFCF91DF910895DF93CF93CDB7A6
:101C2000DEB72F970FB6F894DEBF0FBECDBF8F87FC
:101C300083E060E040E00E940C0883E061E040E067
:101C40000E940C0882E06F850E94630983E062E0D5
:101C500041E00E940C0880E090E0A0E0B0E48B87B7
:101C60009C87AD87BE876B857C858D859E8520E0B2
:101C700030E04AEF54E40E941F02DC01CB018F8365
:101C80009887A987BA876F81788589859A8520E0AA
:101C900030E040E85FE30E94250488232CF481E0D3
:101CA00090E09E838D833FC06F81788589859A857A
:101CB00020E03FEF4FE757E40E94C50318164CF5AC
:101CC0006B857C858D859E8520E030E040E251E487
:101CD0000E941F02DC01CB01BC01CD010E94490022
:101CE000DC01CB019E838D830FC088EC90E09C8348
:101CF0008B838B819C810197F1F79C838B838D81F2
:101D00009E8101979E838D838D819E81009769F7C7
:101D100014C06F81788589859A850E944900DC010D
:101D2000CB019E838D838D819E819A838983898156
:101D30009A810197F1F79A83898383E062E040E01A
:101D40000E940C082F960FB6F894DEBF0FBECDBFD1
:101D5000CF91DF9108950F931F93DF93CF93CDB76A
:101D6000DEB7CC54D0400FB6F894DEBF0FBECDBF67
:101D7000FE01E75BFF4F80E090E0A0EFB1E48083DD
:101D80009183A283B3838E010B5B1F4FFE01E75B40
:101D9000FF4F608171818281938120E030E04AEFC2
:101DA00054E40E941F02DC01CB01F801808391837F
:101DB000A283B383FE01EB5BFF4F6081718182815F
:101DC000938120E030E040E85FE30E94250488230F
:101DD00044F4FE01ED5BFF4F81E090E0918380834E
:101DE00064C0FE01EB5BFF4F608171818281938152
:101DF00020E03FEF4FE757E40E94C50318160CF0B0
:101E000043C0FE01E75BFF4F608171818281938156
:101E100020E030E040E251E40E941F02DC01CB01EF
:101E20008E010D5B1F4FBC01CD010E944900DC01FA
:101E3000CB01F801918380831FC0FE01EF5BFF4F50
:101E400088EC90E091838083FE01EF5BFF4F8081FF
:101E500091810197F1F7FE01EF5BFF4F9183808342
:101E6000DE01AD5BBF4FFE01ED5BFF4F80819181D5
:101E7000019711969C938E93FE01ED5BFF4F80813D
:101E800091810097D1F624C08E010D5B1F4FFE019A
:101E9000EB5BFF4F60817181828193810E944900D9
:101EA000DC01CB01F80191838083FE01ED5BFF4FE4
:101EB00080819181FE01FF9691838083FE01FF96D0
:101EC000808191810197F1F7FE01FF9691838083D4
:101ED00088E30E940D0E80E090E0A0E2B2E48BAFB8
:101EE0009CAFADAFBEAF6BAD7CAD8DAD9EAD2BEA03
:101EF0003AEA4AE250E40E941F02DC01CB018FABB8
:101F000098AFA9AFBAAF6FA978AD89AD9AAD20E00F
:101F100030E040E85FE30E94250488231CF481E060
:101F20008EAB91C06FA978AD89AD9AAD20E030E05D
:101F30004FE753E40E94C50318160CF07BC06BAD4D
:101F40007CAD8DAD9EAD20E030E04AE754E40E94C8
:101F50001903DC01CB018AAB9BABACABBDAB6AA96F
:101F60007BA98CA99DA920E030E04AEF54E40E94AF
:101F70001F02DC01CB018EA79FA7A8ABB9AB6EA552
:101F80007FA588A999A920E030E040E85FE30E949E
:101F9000250488232CF481E090E09DA78CA73FC006
:101FA0006EA57FA588A999A920E03FEF4FE757E4E8
:101FB0000E94C50318164CF56AA97BA98CA99DA996
:101FC00020E030E040E251E40E941F02DC01CB013E
:101FD000BC01CD010E944900DC01CB019DA78CA76B
:101FE0000FC088EC90E09BA78AA78AA59BA50197C4
:101FF000F1F79BA78AA78CA59DA501979DA78CA704
:102000008CA59DA5009769F724C06EA57FA588A91A
:1020100099A90E944900DC01CB019DA78CA78CA542
:102020009DA599A788A788A599A50197F1F799A7D4
:1020300088A70FC06FA978AD89AD9AAD0E944900FD
:10204000DC01CB018EAB8EA98FA38FA18A95F1F70E
:102050008FA38FE00E940D0E80E090E0A0E2B2E43A
:102060008BA39CA3ADA3BEA36BA17CA18DA19EA1BC
:102070002BEA3AEA4AE250E40E941F02DC01CB015B
:102080008F8F98A3A9A3BAA36F8D78A189A19AA1D4
:1020900020E030E040E85FE30E94250488231CF440
:1020A00081E08E8F91C06F8D78A189A19AA120E0E7
:1020B00030E04FE753E40E94C50318160CF07BC0D4
:1020C0006BA17CA18DA19EA120E030E04AE754E401
:1020D0000E941903DC01CB018A8F9B8FAC8FBD8FCF
:1020E0006A8D7B8D8C8D9D8D20E030E04AEF54E42D
:1020F0000E941F02DC01CB018E8B9F8BA88FB98FB2
:102100006E897F89888D998D20E030E040E85FE31B
:102110000E94250488232CF481E090E09D8B8C8B19
:102120003FC06E897F89888D998D20E03FEF4FE712
:1021300057E40E94C50318164CF56A8D7B8D8C8D73
:102140009D8D20E030E040E251E40E941F02DC015E
:10215000CB01BC01CD010E944900DC01CB019D8B6C
:102160008C8B0FC088EC90E09B8B8A8B8A899B8933
:102170000197F1F79B8B8A8B8C899D8901979D8BA9
:102180008C8B8C899D89009769F724C06E897F8923
:10219000888D998D0E944900DC01CB019D8B8C8B31
:1021A0008C899D89998B888B888999890197F1F70A
:1021B000998B888B0FC06F8D78A189A19AA10E94FD
:1021C0004900DC01CB018E8F8E8D8F878F858A959C
:1021D000F1F78F8781E00E940D0E80E090E0A0E093
:1021E000B0E48B879C87AD87BE876B857C858D85AA
:1021F0009E8520E030E04AEF54E40E941F02DC019B
:10220000CB018F839887A987BA876F817885898565
:102210009A8520E030E040E85FE30E9425048823AF
:102220002CF481E090E09E838D833FC06F817885A0
:1022300089859A8520E03FEF4FE757E40E94C50368
:1022400018164CF56B857C858D859E8520E030E0E9
:1022500040E251E40E941F02DC01CB01BC01CD0130
:102260000E944900DC01CB019E838D830FC088EC66
:1022700090E09C838B838B819C810197F1F79C83F9
:102280008B838D819E8101979E838D838D819E811D
:10229000009769F714C06F81788589859A850E94B7
:1022A0004900DC01CB019E838D838D819E819A83C1
:1022B000898389819A810197F1F79A83898386E0DE
:1022C0000E940D0EC45BDF4F0FB6F894DEBF0FBE49
:1022D000CDBFCF91DF911F910F910895DF93CF93E1
:1022E000CDB7DEB72E970FB6F894DEBF0FBECDBFC9
:1022F00081E00E940D0E80E090E0A0E0B0E48B87CA
:102300009C87AD87BE876B857C858D859E8520E00B
:1023100030E04AEF54E40E941F02DC01CB018F83BE
:102320009887A987BA876F81788589859A8520E003
:1023300030E040E85FE30E94250488232CF481E02C
:1023400090E09E838D833FC06F81788589859A85D3
:1023500020E03FEF4FE757E40E94C50318164CF505
:102360006B857C858D859E8520E030E040E251E4E0
:102370000E941F02DC01CB01BC01CD010E9449007B
:10238000DC01CB019E838D830FC088EC90E09C83A1
:102390008B838B819C810197F1F79C838B838D814B
:1023A0009E8101979E838D838D819E81009769F721
:1023B00014C06F81788589859A850E944900DC0167
:1023C000CB019E838D838D819E819A8389838981B0
:1023D0009A810197F1F79A8389832E960FB6F89424
:1023E000DEBF0FBECDBFCF91DF910895DF93CF93B6
:1023F00000D0CDB7DEB79A8389830BC0E981FA811B
:10240000208189819A8101969A838983822F0E94F3
:102410006F0DE981FA818081882381F70F900F90F9
:10242000CF91DF910895DF93CF9300D000D0CDB747
:10243000DEB789836A838981282F30E03C832B8330
:102440008B819C818130910531F02B813C81223040
:10245000310531F009C08A8181580E940D0E04C0F7
:102460008A8181540E940D0E0F900F900F900F9053
:10247000CF91DF910895DF93CF9300D000D0CDB7F7
:10248000DEB79C838B8381E090E09A8389838B8184
:102490009C81009731F580E30E940D0E22C0898156
:1024A0009A819C01220F331FC901880F991F880F41
:1024B000991FF901E80FF91F8B819C812AE030E018
:1024C000B9010E94682A8E0F9F1F9A8389838B818E
:1024D0009C812AE030E0B9010E94682ACB019C83EC
:1024E0008B838B819C810097D1F614C089819A815E
:1024F0002AE030E0B9010E94682A805D0E946F0DD9
:1025000089819A812AE030E0B9010E94682ACB01D2
:102510009A83898389819A818130910539F70F9057
:102520000F900F900F90CF91DF910895DF93CF938D
:10253000CDB7DEB727970FB6F894DEBF0FBECDBF7D
:102540009C838B836D834E832F838D81882F90E0B6
:10255000880F991F880F991F880F991F8A838A8176
:1025600080648A838A810E940D0E19820EC089813F
:10257000282F30E08B819C81FC01E20FF31F8081CA
:102580000E946F0D89818F5F89838981883078F3FC
:102590008E816F810E9413128D810E946F0D27968C
:1025A0000FB6F894DEBF0FBECDBFCF91DF91089577
:1025B000DF93CF9300D0CDB7DEB789836A8389815B
:1025C0006A8141E00E940C080F900F90CF91DF913B
:1025D0000895DF93CF9300D0CDB7DEB789836A83A8
:1025E00089816A8140E00E940C080F900F90CF9182
:1025F000DF910895DF93CF9300D00F92CDB7DEB770
:1026000089836A834B8389816A814B810E940C088C
:102610000F900F900F90CF91DF910895DF93CF939C
:1026200000D0CDB7DEB789836A8389816A810E9431
:10263000300A0F900F90CF91DF910895DF93CF93E1
:1026400000D000D0CDB7DEB79C838B838B819C817B
:10265000CC01A0E0B0E028EE33E040E050E0BC0167
:10266000CD010E94492ADC01CB0124EB30E040E09F
:1026700050E0BC01CD010E947C2ADA01C9018951D8
:102680009C4F9A83898389819A810E94A0130F901D
:102690000F900F900F90CF91DF910895DF93CF931C
:1026A000CDB7DEB7AFE4B0E0EFE4F0E080818E7F3D
:1026B0008C93AFE4B0E0EFE4F0E0808182608C9333
:1026C000AEE4B0E0EEE4F0E0808188608C93AEE4AC
:1026D000B0E0EEE4F0E0808180618C93AFE4B0E0A4
:1026E000EFE4F0E080818F7B8C93AFE4B0E0EFE427
:1026F000F0E0808180688C93E6E4F0E08FE19EE476
:1027000091838083EAE4F0E08CED95E0918380830F
:10271000AEE4B0E0EEE4F0E080818E7F8C93AEE436
:10272000B0E0EEE4F0E0808182608C93AEE4B0E053
:10273000EEE4F0E080818B7F8C93CF91DF91089560
:10274000DF93CF9300D0CDB7DEB79A838983EAE4D5
:10275000F0E089819A81918380830F900F90CF91CF
:10276000DF910895DF93CF9300D0CDB7DEB79A8382
:102770008983ECE4F0E089819A81918380830F90D2
:102780000F90CF91DF910895DF93CF93CDB7DEB750
:10279000ECE4F0E080819181CF91DF910895DF93A7
:1027A000CF93CDB7DEB7E6E4F0E080819181CF91A1
:1027B000DF910895DF93CF93CDB7DEB7A9E5B0E001
:1027C000E9E5F0E0808180628C93AEE4B0E0EEE475
:1027D000F0E0808180648C93CF91DF910895DF9346
:1027E000CF93CDB7DEB7A9E5B0E0E9E5F0E08081B1
:1027F0008F7D8C93CF91DF910895DF93CF9300D09D
:10280000CDB7DEB79A83898389819A81009731F0A9
:1028100089819A819093C9028093C8020F900F908A
:10282000CF91DF9108951F920F920FB60F9211244E
:102830002F933F934F935F936F937F938F939F93C8
:10284000AF93BF93EF93FF93DF93CF93CDB7DEB7F3
:102850008091C8029091C902009729F0E091C802C6
:10286000F091C9020995CF91DF91FF91EF91BF914E
:10287000AF919F918F917F916F915F914F913F9118
:102880002F910F900FBE0F901F901895DF93CF934D
:1028900000D00F92CDB7DEB789838981282F30E031
:1028A0003B832A838A819B81009731F02A813B8177
:1028B0002130310549F00FC0AEE4B0E0EEE4F0E0C5
:1028C00080818F7B8C9307C0AEE4B0E0EEE4F0E053
:1028D000808180648C930F900F900F90CF91DF9147
:1028E00008950F931F93DF93CF93CDB7DEB7C756ED
:1028F000D1400FB6F894DEBF0FBECDBFFE01E55A42
:10290000FE4F8FEF8083FE01E65AFE4F8FEF8083EC
:10291000FE01E45AFE4F8091990290919A02A09193
:102920009B02B0919C0280839183A283B383FE01BA
:10293000E75AFE4F81E08083FE01E95AFE4F118283
:102940001082FE01EB5AFE4F11821082FE01EC5AFA
:10295000FE4F10820E94D0060E94AB0E0E944F06CE
:102960000E944E1380E090E00E941E1380E067E01A
:102970000E94A409FE01E55AFE4F8083FE01E55A3C
:10298000FE4F8081882311F00C944D290E946E1116
:1029900080E690E00E94F611FE01E35BFE4F80E0CE
:1029A00090E0AAEFB4E480839183A283B3838E0185
:1029B000075B1E4FFE01E35BFE4F608171818281E8
:1029C000938120E030E04AEF54E40E941F02DC01D2
:1029D000CB01F80180839183A283B383FE01E75B7F
:1029E000FE4F608171818281938120E030E040E878
:1029F0005FE30E942504882344F4FE01E95BFE4F57
:102A000081E090E09183808364C0FE01E75BFE4F2C
:102A1000608171818281938120E03FEF4FE757E42D
:102A20000E94C50318160CF043C0FE01E35BFE4F85
:102A3000608171818281938120E030E040E251E445
:102A40000E941F02DC01CB018E01095B1E4FBC01FD
:102A5000CD010E944900DC01CB01F8019183808304
:102A60001FC0FE01EB5BFE4F88EC90E091838083FA
:102A7000FE01EB5BFE4F808191810197F1F7FE0132
:102A8000EB5BFE4F91838083DE01A95BBE4FFE01AD
:102A9000E95BFE4F80819181019711969C938E9303
:102AA000FE01E95BFE4F808191810097D1F627C03E
:102AB0008E01095B1E4FFE01E75BFE4F6081718155
:102AC000828193810E944900DC01CB01F80191834E
:102AD0008083DE01AD5BBE4FFE01E95BFE4F80816E
:102AE00091818D939C93FE01ED5BFE4F80819181DE
:102AF0000197F1F7FE01ED5BFE4F918380830E9409
:102B00006E1180E790E00E94F611FE01E15CFE4F3D
:102B100080E090E0AAEFB4E480839183A283B38342
:102B20008E01055C1E4FFE01E15CFE4F60817181EC
:102B30008281938120E030E04AEF54E40E941F023A
:102B4000DC01CB01F80180839183A283B383FE0172
:102B5000E55CFE4F608171818281938120E030E0ED
:102B600040E85FE30E942504882344F4FE01E75C0B
:102B7000FE4F81E090E09183808364C0FE01E55CBC
:102B8000FE4F608171818281938120E03FEF4FE7AA
:102B900057E40E94C50318160CF043C0FE01E15C27
:102BA000FE4F608171818281938120E030E040E2BC
:102BB00051E40E941F02DC01CB018E01075C1E4F15
:102BC000BC01CD010E944900DC01CB01F8019183D9
:102BD00080831FC0FE01E95CFE4F88EC90E091838A
:102BE0008083FE01E95CFE4F808191810197F1F7BE
:102BF000FE01E95CFE4F91838083DE01A75CBE4F3E
:102C0000FE01E75CFE4F80819181019711969C93B4
:102C10008E93FE01E75CFE4F808191810097D1F693
:102C200027C08E01075C1E4FFE01E55CFE4F6081F0
:102C30007181828193810E944900DC01CB01F801FE
:102C400091838083DE01AB5CBE4FFE01E75CFE4FEB
:102C5000808191818D939C93FE01EB5CFE4F80817E
:102C600091810197F1F7FE01EB5CFE4F9183808328
:102C70000E946E1181E890E00E94F61182E061E00E
:102C80000E9413128EE890E00E94F61106C00E9486
:102C9000780CFE01E65AFE4F8083FE01E65AFE4F95
:102CA00080818F3FA1F3FE01E65AFE4F8081813380
:102CB00011F00C94A025FE01E65AFE4F8FEF8083A1
:102CC0000E946E118CE990E00E94F61182E061E0B2
:102CD0000E941312FE01ED5AFE4F10822FC00E9477
:102CE000780CFE01E65AFE4F8083FE01E65AFE4F45
:102CF00080818F3FA1F3FE01ED5AFE4F8081282F86
:102D000030E0CE01805A9E4FDC01A20FB31FFE01BE
:102D1000E65AFE4F80818C938AEA90E00E94F61179
:102D2000FE01E65AFE4F8FEF8083DE01AD5ABE4FA3
:102D3000FE01ED5AFE4F80818F5F8C93FE01ED5AAC
:102D4000FE4F8081843088F2FE01E05AFE4F908170
:102D50008091BE02981711F00C945321FE01E05AA5
:102D6000FE4F91818091BF02981711F00C9453216E
:102D7000FE01E05AFE4F92818091C002981711F037
:102D80000C945321FE01E05AFE4F93818091C102C1
:102D9000981711F00C9453210E946E118CEA90E068
:102DA0000E94F611FE01EF5CFE4F80E090E0AAE782
:102DB000B4E480839183A283B3838E01035D1E4FAD
:102DC000FE01EF5CFE4F608171818281938120E082
:102DD00030E04AEF54E40E941F02DC01CB01F8010D
:102DE00080839183A283B383FE01E35DFE4F608104
:102DF00071818281938120E030E040E85FE30E94AE
:102E00002504882344F4FE01E55DFE4F81E090E057
:102E10009183808364C0FE01E35DFE4F6081718118
:102E20008281938120E03FEF4FE757E40E94C50382
:102E300018160CF043C0FE01EF5CFE4F60817181FB
:102E40008281938120E030E040E251E40E941F0241
:102E5000DC01CB018E01055D1E4FBC01CD010E943E
:102E60004900DC01CB01F801918380831FC0FE0182
:102E7000E75DFE4F88EC90E091838083FE01E75D83
:102E8000FE4F808191810197F1F7FE01E75DFE4FD2
:102E900091838083DE01A55DBE4FFE01E55DFE4F9F
:102EA00080819181019711969C938E93FE01E55D3F
:102EB000FE4F808191810097D1F627C08E01055D7C
:102EC0001E4FFE01E35DFE4F60817181828193811F
:102ED0000E944900DC01CB01F80191838083DE016F
:102EE000A95DBE4FFE01E55DFE4F808191818D930E
:102EF0009C93FE01E95DFE4F808191810197F1F77E
:102F0000FE01E95DFE4F918380830E946E118BEB81
:102F100090E00E94F611FE01ED5DFE4F80E090E032
:102F2000AAE7B4E480839183A283B3838E01015E18
:102F30001E4FFE01ED5DFE4F6081718182819381A4
:102F400020E030E04AEF54E40E941F02DC01CB0194
:102F5000F80180839183A283B383FE01E15EFE4F7B
:102F6000608171818281938120E030E040E85FE3FD
:102F70000E942504882344F4FE01E35EFE4F81E0B5
:102F800090E09183808364C0FE01E15EFE4F60812A
:102F900071818281938120E03FEF4FE757E40E94E7
:102FA000C50318160CF043C0FE01ED5DFE4F6081B5
:102FB00071818281938120E030E040E251E40E94FF
:102FC0001F02DC01CB018E01035E1E4FBC01CD014F
:102FD0000E944900DC01CB01F801918380831FC06E
:102FE000FE01E55EFE4F88EC90E091838083FE0158
:102FF000E55EFE4F808191810197F1F7FE01E55E6C
:10300000FE4F91838083DE01A35EBE4FFE01E35E2F
:10301000FE4F80819181019711969C938E93FE01C2
:10302000E35EFE4F808191810097D1F627C08E012B
:10303000035E1E4FFE01E15EFE4F60817181828161
:1030400093810E944900DC01CB01F80191838083C8
:10305000DE01A75EBE4FFE01E35EFE4F80819181DF
:103060008D939C93FE01E75EFE4F808191810197D5
:10307000F1F7FE01E75EFE4F918380830E946E119F
:103080008AEC90E00E94F611FE01EB5EFE4F80E0BC
:1030900090E0AAE7B4E480839183A283B3838E0196
:1030A0000F5E1E4FFE01EB5EFE4F608171818281DB
:1030B000938120E030E04AEF54E40E941F02DC01DB
:1030C000CB01F80180839183A283B383FE01EF5E7D
:1030D000FE4F608171818281938120E030E040E881
:1030E0005FE30E942504882344F4FE01E15FFE4F64
:1030F00081E090E09183808364C0FE01EF5EFE4F2B
:10310000608171818281938120E03FEF4FE757E436
:103110000E94C50318160CF043C0FE01EB5EFE4F83
:10312000608171818281938120E030E040E251E44E
:103130000E941F02DC01CB018E01015F1E4FBC010A
:10314000CD010E944900DC01CB01F801918380830D
:103150001FC0FE01E35FFE4F88EC90E09183808307
:10316000FE01E35FFE4F808191810197F1F7FE013F
:10317000E35FFE4F91838083DE01A15FBE4FFE01BE
:10318000E15FFE4F80819181019711969C938E9310
:10319000FE01E15FFE4F808191810097D1F627C04B
:1031A0008E01015F1E4FFE01EF5EFE4F6081718157
:1031B000828193810E944900DC01CB01F801918357
:1031C0008083DE01A55FBE4FFE01E15FFE4F80817F
:1031D00091818D939C93FE01E55FFE4F80819181EB
:1031E0000197F1F7FE01E55FFE4F918380838AE549
:1031F00090E00E941E1383E064E041E00E940C080E
:10320000FE01E95FFE4F80E090E4ACE9B5E4808325
:103210009183A283B3838E010D5F1E4FFE01E95F90
:10322000FE4F608171818281938120E030E04AEF1E
:1032300054E40E941F02DC01CB01F80180839183DA
:10324000A283B383FE01ED5FFE4F608171818281B5
:10325000938120E030E040E85FE30E94250488236A
:1032600044F4FE01EF5FFE4F81E090E091838083A4
:1032700064C0FE01ED5FFE4F6081718182819381A8
:1032800020E03FEF4FE757E40E94C50318160CF00B
:1032900043C0FE01E95FFE4F6081718182819381AD
:1032A00020E030E040E251E40E941F02DC01CB014B
:1032B0008E010F5F1E4FBC01CD010E944900DC0151
:1032C000CB01F801918380831FC0FE01E150FF4FC5
:1032D00088EC90E091838083FE01E150FF4F808174
:1032E00091810197F1F7FE01E150FF4F91838083B7
:1032F000DE01AF5FBE4FFE01EF5FFE4F8081918127
:10330000019711969C938E93FE01EF5FFE4F808193
:1033100091810097D1F627C08E010F5F1E4FFE01ED
:10332000ED5FFE4F60817181828193810E9449002F
:10333000DC01CB01F80191838083DE01A350BF4FF4
:10334000FE01EF5FFE4F808191818D939C93FE0182
:10335000E350FF4F808191810197F1F7FE01E35027
:10336000FF4F9183808380E090E00E941E1383E0F2
:1033700064E040E00E940C08FE01EC5AFE4F8081A0
:10338000813009F481CE0E946E118AED90E00E9496
:10339000F61181E066E00E9413128FED90E00E942A
:1033A000F61181E06CE00E94131285EE90E00E941D
:1033B000F61182E061E00E9413128BEE90E00E9411
:1033C000F61182E069E00E94131283EF90E00E9400
:1033D000F61106C00E94780CFE01E65AFE4F80836B
:1033E000FE01E65AFE4F80818F3FA1F3FE01E65AAF
:1033F000FE4F8081813309F016C1FE01E65AFE4F6F
:103400008FEF80830E946E118AEF90E00E94F61188
:1034100082E061E00E94131282E091E00E94F611C6
:1034200006C00E94780CFE01E65AFE4F8083FE0122
:10343000E65AFE4F80818F3FA1F3FE01E65AFE4F10
:103440008081813359F4FE01E65AFE4F8FEF80836D
:1034500080E062E041E00E940C0895CFFE01E65A50
:10346000FE4F8081823359F4FE01E65AFE4F8FEF02
:10347000808380E062E040E00E940C0884CFFE017F
:10348000E65AFE4F8081833431F4FE01E65AFE4F46
:103490008FEF808378CFFE01E65AFE4F8FEF808357
:1034A0000E946E118BE091E00E94F61182E064E0D0
:1034B0000E9413128BE191E00E94F611FE01E75089
:1034C000FF4F80E090E0AAE7B4E480839183A28379
:1034D000B3838E010B501F4FFE01E750FF4F6081F9
:1034E00071818281938120E030E04AEF54E40E94B0
:1034F0001F02DC01CB01F80180839183A283B38397
:10350000FE01EB50FF4F608171818281938120E049
:1035100030E040E85FE30E942504882344F4FE0184
:10352000ED50FF4F81E090E09183808364C0FE0105
:10353000EB50FF4F608171818281938120E03FEFEA
:103540004FE757E40E94C50318160CF043C0FE0174
:10355000E750FF4F608171818281938120E030E0EC
:1035600040E251E40E941F02DC01CB018E010D50AC
:103570001F4FBC01CD010E944900DC01CB01F801C5
:10358000918380831FC0FE01EF50FF4F88EC90E0D5
:1035900091838083FE01EF50FF4F808191810197DD
:1035A000F1F7FE01EF50FF4F91838083DE01AD50B4
:1035B000BF4FFE01ED50FF4F808191810197119621
:1035C0009C938E93FE01ED50FF4F80819181009777
:1035D000D1F613CF8E010D501F4FFE01EB50FF4F60
:1035E00060817181828193810E944900DC01CB015D
:1035F000F80191838083DE01A151BF4FFE01ED50A0
:10360000FF4F8081918111969C938E93FE01E15131
:10361000FF4F808191810197F1F7FE01E151FF4F4A
:1036200091838083EACEFE01E65AFE4F8081823389
:1036300009F034C1FE01E65AFE4F8FEF80830E94ED
:103640006E1185E291E00E94F61182E061E00E9435
:10365000131285E391E00E94F611FE01E551FF4F40
:1036600080E090E0AAE7B4E480839183A283B383EF
:103670008E0109511F4FFE01E551FF4F608171819D
:103680008281938120E030E04AEF54E40E941F02DF
:10369000DC01CB01F80180839183A283B383FE0117
:1036A000E951FF4F608171818281938120E030E098
:1036B00040E85FE30E942504882344F4FE01EB51B7
:1036C000FF4F81E090E09183808364C0FE01E95167
:1036D000FF4F608171818281938120E03FEF4FE74E
:1036E00057E40E94C50318160CF043C0FE01E551D3
:1036F000FF4F608171818281938120E030E040E260
:1037000051E40E941F02DC01CB018E010B511F4FBF
:10371000BC01CD010E944900DC01CB01F80191837D
:1037200080831FC0FE01ED51FF4F88EC90E0918334
:103730008083FE01ED51FF4F808191810197F1F768
:10374000FE01ED51FF4F91838083DE01AB51BF4FEE
:10375000FE01EB51FF4F80819181019711969C935F
:103760008E93FE01EB51FF4F808191810097D1F63E
:1037700027C08E010B511F4FFE01E951FF4F6081A1
:103780007181828193810E944900DC01CB01F801A3
:1037900091838083DE01AF51BF4FFE01EB51FF4F9C
:1037A000808191818D939C93FE01EF51FF4F808129
:1037B00091810197F1F7FE01EF51FF4F91838083D3
:1037C00081E00E948E06FE01E95AFE4F91838083BC
:1037D000FE01E95AFE4F20813181C901880F991FEE
:1037E000880F991F820F931FFE01EB5AFE4F892FFE
:1037F00099278695869591838083FE01EB5AFE4F2B
:10380000808191818230910580F480E063E041E025
:103810000E940C0880E064E041E00E940C0880E017
:1038200065E041E00E940C08AECDFE01EB5AFE4F70
:103830008081918182309105C0F0FE01EB5AFE4FEC
:10384000808191818330910580F480E063E041E0E4
:103850000E940C0880E064E041E00E940C0880E0D7
:1038600065E040E00E940C088ECDFE01EB5AFE4F51
:10387000808191818430910508F485CD80E063E0FA
:1038800041E00E940C0880E064E040E00E940C08E7
:1038900080E065E040E00E940C0875CDFE01E65A2C
:1038A000FE4F8081833309F016C1FE01E65AFE4FB8
:1038B0008FEF80830E946E1184E491E00E94F611E4
:1038C00082E061E00E9413128DE491E00E94F61103
:1038D00006C00E94780CFE01E65AFE4F8083FE016E
:1038E000E65AFE4F80818F3FA1F3FE01E65AFE4F5C
:1038F0008081813359F4FE01E65AFE4F8FEF8083B9
:1039000080E066E041E00E940C083DCDFE01E65AF1
:10391000FE4F8081823359F4FE01E65AFE4F8FEF4D
:10392000808380E066E040E00E940C082CCDFE0120
:10393000E65AFE4F8081833431F4FE01E65AFE4F91
:103940008FEF808320CDFE01E65AFE4F8FEF8083FC
:103950000E946E118BE091E00E94F61182E064E01B
:103960000E9413128BE191E00E94F611FE01E352D6
:10397000FF4F80E090E0AAE7B4E480839183A283C4
:10398000B3838E0107521F4FFE01E352FF4F608148
:1039900071818281938120E030E04AEF54E40E94FB
:1039A0001F02DC01CB01F80180839183A283B383E2
:1039B000FE01E752FF4F608171818281938120E097
:1039C00030E040E85FE30E942504882344F4FE01D0
:1039D000E952FF4F81E090E09183808364C0FE0153
:1039E000E752FF4F608171818281938120E03FEF38
:1039F0004FE757E40E94C50318160CF043C0FE01C0
:103A0000E352FF4F608171818281938120E030E039
:103A100040E251E40E941F02DC01CB018E010952F9
:103A20001F4FBC01CD010E944900DC01CB01F80110
:103A3000918380831FC0FE01EB52FF4F88EC90E022
:103A400091838083FE01EB52FF4F8081918101972A
:103A5000F1F7FE01EB52FF4F91838083DE01A95203
:103A6000BF4FFE01E952FF4F80819181019711966E
:103A70009C938E93FE01E952FF4F808191810097C4
:103A8000D1F613CF8E0109521F4FFE01E752FF4FAF
:103A900060817181828193810E944900DC01CB01A8
:103AA000F80191838083DE01AD52BF4FFE01E952E0
:103AB000FF4F8081918111969C938E93FE01ED5270
:103AC000FF4F808191810197F1F7FE01ED52FF4F89
:103AD00091838083EACEFE01E65AFE4F80818433D3
:103AE00009F02AC1FE01E65AFE4F8FEF80830E9443
:103AF0006E1187E591E00E94F61182E061E00E947C
:103B0000131282E691E00E94F61106C00E94780C22
:103B1000FE01E65AFE4F8083FE01E65AFE4F808189
:103B20008F3FA1F3FE01E65AFE4F80818133A9F455
:103B3000FE01E65AFE4F8FEF808380E063E041E0B4
:103B40000E940C0880E064E041E00E940C0880E0E4
:103B500065E041E00E940C0816CCFE01E65AFE4FDB
:103B600080818233A9F4FE01E65AFE4F8FEF8083F5
:103B700080E063E040E00E940C0880E064E040E008
:103B80000E940C0880E065E040E00E940C08FBCB3E
:103B9000FE01E65AFE4F8081833431F4FE01E65A7D
:103BA000FE4F8FEF8083EFCBFE01E65AFE4F8FEF83
:103BB00080830E946E118BE091E00E94F61182E0FA
:103BC00064E00E9413128BE191E00E94F611FE0165
:103BD000E153FF4F80E090E0AAE7B4E48083918353
:103BE000A283B3838E0105531F4FFE01E153FF4FA4
:103BF000608171818281938120E030E04AEF54E45A
:103C00000E941F02DC01CB01F80180839183A28313
:103C1000B383FE01E553FF4F6081718182819381FF
:103C200020E030E040E85FE30E942504882344F46C
:103C3000FE01E753FF4F81E090E09183808364C0F1
:103C4000FE01E553FF4F608171818281938120E005
:103C50003FEF4FE757E40E94C50318160CF043C02E
:103C6000FE01E153FF4F608171818281938120E0E9
:103C700030E040E251E40E941F02DC01CB018E01E2
:103C800007531F4FBC01CD010E944900DC01CB014D
:103C9000F801918380831FC0FE01E953FF4F88EC38
:103CA00090E091838083FE01E953FF4F80819181F1
:103CB0000197F1F7FE01E953FF4F91838083DE0105
:103CC000A753BF4FFE01E753FF4F808191810197BA
:103CD00011969C938E93FE01E753FF4F8081918153
:103CE0000097D1F6FFCE8E0107531F4FFE01E5531B
:103CF000FF4F60817181828193810E944900DC01C4
:103D0000CB01F80191838083DE01AB53BF4FFE01ED
:103D1000E753FF4F8081918111969C938E93FE0112
:103D2000EB53FF4F808191810197F1F7FE01EB5337
:103D3000FF4F91838083D6CEFE01E65AFE4F8081ED
:103D4000853309F0DBC1FE01E65AFE4F8FEF808319
:103D50000E946E118EE691E00E94F61182E061E011
:103D60000E9413128FE791E00E94F61180E00E94FA
:103D70008E06FE01E95AFE4F91838083FE01E95AC7
:103D8000FE4F80819181CC01A0E0B0E024EF31E0D2
:103D900040E050E0BC01CD010E94492ADC01CB018A
:103DA000072E7AE0B695A795979587957A95D1F7DE
:103DB000702DFE01EB5AFE4F91838083FE01EB5A7A
:103DC000FE4F808191818F31910508F0C7C00E941C
:103DD0006E118EE891E00E94F61182E061E00E948F
:103DE00013128BE991E00E94F611FE01EF53FF4F91
:103DF00080E090E0AAE7B4E480839183A283B38358
:103E00008E0103541F4FFE01EF53FF4F60817181FC
:103E10008281938120E030E04AEF54E40E941F0247
:103E2000DC01CB01F80180839183A283B383FE017F
:103E3000E354FF4F608171818281938120E030E003
:103E400040E85FE30E942504882344F4FE01E55422
:103E5000FF4F81E090E09183808364C0FE01E354D2
:103E6000FF4F608171818281938120E03FEF4FE7B6
:103E700057E40E94C50318160CF043C0FE01EF532F
:103E8000FF4F608171818281938120E030E040E2C8
:103E900051E40E941F02DC01CB018E0105541F4F2B
:103EA000BC01CD010E944900DC01CB01F8019183E6
:103EB00080831FC0FE01E754FF4F88EC90E09183A0
:103EC0008083FE01E754FF4F808191810197F1F7D4
:103ED000FE01E754FF4F91838083DE01A554BF4F5D
:103EE000FE01E554FF4F80819181019711969C93CB
:103EF0008E93FE01E554FF4F808191810097D1F6AA
:103F000027C08E0105541F4FFE01E354FF4F60810F
:103F10007181828193810E944900DC01CB01F8010B
:103F200091838083DE01A954BF4FFE01E554FF4F0A
:103F3000808191818D939C93FE01E954FF4F808194
:103F400091810197F1F7FE01E954FF4F918380833E
:103F500080E062E040E00E940C0815CAFE01EB5AC6
:103F6000FE4F808191818F31910508F40CCA0E9427
:103F70006E1182EA91E00E94F61182E061E00E94F7
:103F800013128EEA91E00E94F611FE01ED54FF4FEC
:103F900080E090E0AAE7B4E480839183A283B383B6
:103FA0008E0101551F4FFE01ED54FF4F608171815D
:103FB0008281938120E030E04AEF54E40E941F02A6
:103FC000DC01CB01F80180839183A283B383FE01DE
:103FD000E155FF4F608171818281938120E030E063
:103FE00040E85FE30E942504882344F4FE01E35582
:103FF000FF4F81E090E09183808364C0FE01E15532
:10400000FF4F608171818281938120E03FEF4FE714
:1040100057E40E94C50318160CF043C0FE01ED548E
:10402000FF4F608171818281938120E030E040E226
:1040300051E40E941F02DC01CB018E0103551F4F8A
:10404000BC01CD010E944900DC01CB01F801918344
:1040500080831FC0FE01E555FF4F88EC90E09183FF
:104060008083FE01E555FF4F808191810197F1F733
:10407000FE01E555FF4F91838083DE01A355BF4FBD
:10408000FE01E355FF4F80819181019711969C932A
:104090008E93FE01E355FF4F808191810097D1F609
:1040A00027C08E0103551F4FFE01E155FF4F608170
:1040B0007181828193810E944900DC01CB01F8016A
:1040C00091838083DE01A755BF4FFE01E355FF4F6B
:1040D000808191818D939C93FE01E755FF4F8081F4
:1040E00091810197F1F7FE01E755FF4F918380839E
:1040F00080E062E041E00E940C0845C9FE01E65AFA
:10410000FE4F8081833439F4FE01E65AFE4F8FEF73
:1041100080830C945B16FE01E65AFE4F8FEF80837E
:104120000E946E118BE091E00E94F61182E064E043
:104130000E9413128BE191E00E94F611FE01EB55F3
:10414000FF4F80E090E0AAE7B4E480839183A283EC
:10415000B3838E010F551F4FFE01EB55FF4F60815A
:1041600071818281938120E030E04AEF54E40E9423
:104170001F02DC01CB01F80180839183A283B3830A
:10418000FE01EF55FF4F608171818281938120E0B4
:1041900030E040E85FE30E942504882344F4FE01F8
:1041A000E156FF4F81E090E09183808364C0FE017F
:1041B000EF55FF4F608171818281938120E03FEF55
:1041C0004FE757E40E94C50318160CF043C0FE01E8
:1041D000EB55FF4F608171818281938120E030E057
:1041E00040E251E40E941F02DC01CB018E01015626
:1041F0001F4FBC01CD010E944900DC01CB01F80139
:10420000918380831FC0FE01E356FF4F88EC90E04E
:1042100091838083FE01E356FF4F80819181019756
:10422000F1F7FE01E356FF4F91838083DE01A15633
:10423000BF4FFE01E156FF4F80819181019711969A
:104240009C938E93FE01E156FF4F808191810097F0
:10425000D1F699C88E0101561F4FFE01EF55FF4F51
:1042600060817181828193810E944900DC01CB01D0
:10427000F80191838083DE01A556BF4FFE01E15610
:10428000FF4F8081918111969C938E93FE01E5569C
:10429000FF4F808191810197F1F7FE01E556FF4FB5
:1042A0009183808370C8FE01E05AFE4F9081FE0129
:1042B000E45AFE4F8081981701F5FE01E05AFE4F47
:1042C0009181FE01E45AFE4F81819817B1F4FE01FD
:1042D000E05AFE4F9281FE01E45AFE4F8281981708
:1042E00061F4FE01E05AFE4F9381FE01E45AFE4F55
:1042F0008381981711F40C94C614FE01E05AFE4F06
:1043000090818091C102981709F0A5C1FE01E05A81
:10431000FE4F91818091C002981709F09CC1FE0167
:10432000E05AFE4F92818091BF02981709F093C125
:10433000FE01E05AFE4F93818091BE02981709F06A
:104340008AC10E946E1184EB91E00E94F61182E016
:1043500061E00E94131280EC91E00E94F61183E06C
:1043600063E041E00E940C0883E066E041E00E94C7
:104370000C08FE01E956FF4F80E090E0AAEFB3E49D
:1043800080839183A283B3838E010D561F4FFE015C
:10439000E956FF4F608171818281938120E030E096
:1043A0004AEF54E40E941F02DC01CB01F801808334
:1043B0009183A283B383FE01ED56FF4F608171812B
:1043C0008281938120E030E040E85FE30E94250491
:1043D000882344F4FE01EF56FF4F81E090E0918383
:1043E000808364C0FE01ED56FF4F60817181828140
:1043F000938120E03FEF4FE757E40E94C503181672
:104400000CF043C0FE01E956FF4F6081718182814B
:10441000938120E030E040E251E40E941F02DC0181
:10442000CB018E010F561F4FBC01CD010E944900E8
:10443000DC01CB01F801918380831FC0FE01E157AD
:10444000FF4F88EC90E091838083FE01E157FF4F9E
:10445000808191810197F1F7FE01E157FF4F918330
:104460008083DE01AF56BF4FFE01EF56FF4F8081C4
:104470009181019711969C938E93FE01EF56FF4F09
:10448000808191810097D1F627C08E010F561F4F72
:10449000FE01ED56FF4F60817181828193810E9400
:1044A0004900DC01CB01F80191838083DE01A35731
:1044B000BF4FFE01EF56FF4F808191818D939C93FA
:1044C000FE01E357FF4F808191810197F1F7FE01D3
:1044D000E357FF4F9183808383E063E040E00E94D5
:1044E0000C0883E066E040E00E940C08FE01E757FC
:1044F000FF4F80E090E0AAEFB3E480839183A28332
:10450000B3838E010B571F4FFE01E757FF4F6081AA
:1045100071818281938120E030E04AEF54E40E946F
:104520001F02DC01CB01F80180839183A283B38356
:10453000FE01EB57FF4F608171818281938120E002
:1045400030E040E85FE30E942504882344F4FE0144
:10455000ED57FF4F81E090E09183808364C0FE01BE
:10456000EB57FF4F608171818281938120E03FEFA3
:104570004FE757E40E94C50318160CF043C0FE0134
:10458000E757FF4F608171818281938120E030E0A5
:1045900040E251E40E941F02DC01CB018E010D5765
:1045A0001F4FBC01CD010E944900DC01CB01F80185
:1045B000918380831FC0FE01EF57FF4F88EC90E08E
:1045C00091838083FE01EF57FF4F80819181019796
:1045D000F1F7FE01EF57FF4F91838083DE01AD5766
:1045E000BF4FFE01ED57FF4F8081918101971196DA
:1045F0009C938E93FE01ED57FF4F80819181009730
:10460000D1F6ADCE8E010D571F4FFE01EB57FF4F78
:1046100060817181828193810E944900DC01CB011C
:10462000F80191838083DE01A158BF4FFE01ED5751
:10463000FF4F8081918111969C938E93FE01E158EA
:10464000FF4F808191810197F1F7FE01E158FF4F03
:104650009183808384CEFE01E75AFE4F80818330B0
:1046600008F0CEC0DE01A75ABE4FFE01E75AFE4F4A
:1046700080818F5F8C930E946E1181ED91E00E948A
:10468000F61182E061E00E94131280EE91E00E9438
:10469000F611FE01E558FF4F80E090E0AAEFB4E488
:1046A00080839183A283B3838E0109581F4FFE013B
:1046B000E558FF4F608171818281938120E030E075
:1046C0004AEF54E40E941F02DC01CB01F801808311
:1046D0009183A283B383FE01E958FF4F608171810A
:1046E0008281938120E030E040E85FE30E9425046E
:1046F000882344F4FE01EB58FF4F81E090E0918362
:10470000808365C0FE01E958FF4F6081718182811D
:10471000938120E03FEF4FE757E40E94C50318164E
:104720000CF044C0FE01E558FF4F60817181828129
:10473000938120E030E040E251E40E941F02DC015E
:10474000CB018E010B581F4FBC01CD010E944900C7
:10475000DC01CB01F801918380831FC0FE01ED587D
:10476000FF4F88EC90E091838083FE01ED58FF4F6E
:10477000808191810197F1F7FE01ED58FF4F918300
:104780008083DE01AB58BF4FFE01EB58FF4F8081A5
:104790009181019711969C938E93FE01EB58FF4FE8
:1047A000808191810097D1F60C945B168E010B5895
:1047B0001F4FFE01E958FF4F608171818281938113
:1047C0000E944900DC01CB01F80191838083DE0166
:1047D000AF58BF4FFE01EB58FF4F8081918111967A
:1047E0009C938E93FE01EF58FF4F8081918101973A
:1047F000F1F7FE01EF58FF4F918380830C945B1615
:10480000FE01E75AFE4F8081833011F00C945B1655
:104810000E946E118EEE91E00E94F61182E061E03E
:104820000E9413128EEF91E00E94F6110E946E1109
:1048300084EB91E00E94F61182E061E00E94131285
:1048400080EC91E00E94F61183E063E041E00E9479
:104850000C0883E066E041E00E940C08FE01E35989
:10486000FF4F80E090E0AAEFB3E480839183A283BE
:10487000B3838E0107591F4FFE01E359FF4F60813B
:1048800071818281938120E030E04AEF54E40E94FC
:104890001F02DC01CB01F80180839183A283B383E3
:1048A000FE01E759FF4F608171818281938120E091
:1048B00030E040E85FE30E942504882344F4FE01D1
:1048C000E959FF4F81E090E09183808364C0FE014D
:1048D000E759FF4F608171818281938120E03FEF32
:1048E0004FE757E40E94C50318160CF043C0FE01C1
:1048F000E359FF4F608171818281938120E030E034
:1049000040E251E40E941F02DC01CB018E010959F3
:104910001F4FBC01CD010E944900DC01CB01F80111
:10492000918380831FC0FE01EB59FF4F88EC90E01C
:1049300091838083FE01EB59FF4F80819181019724
:10494000F1F7FE01EB59FF4F91838083DE01A959F6
:10495000BF4FFE01E959FF4F808191810197119668
:104960009C938E93FE01E959FF4F808191810097BE
:10497000D1F627C08E0109591F4FFE01E759FF4F9D
:1049800060817181828193810E944900DC01CB01A9
:10499000F80191838083DE01AD59BF4FFE01E959D3
:1049A000FF4F808191818D939C93FE01ED59FF4FC4
:1049B000808191810197F1F7FE01ED59FF4F9183BD
:1049C000808383E063E040E00E940C0883E066E0BF
:1049D00040E00E940C08FE01E15AFF4F80E090E0A9
:1049E000AAEFB3E480839183A283B3838E01055A37
:1049F0001F4FFE01E15AFF4F6081718182819381D7
:104A000020E030E04AEF54E40E941F02DC01CB01B9
:104A1000F80180839183A283B383FE01E55AFF4F9F
:104A2000608171818281938120E030E040E85FE322
:104A30000E942504882344F4FE01E75AFF4F81E0D9
:104A400090E09183808364C0FE01E55AFF4F60814E
:104A500071818281938120E03FEF4FE757E40E940C
:104A6000C50318160CF043C0FE01E15AFF4F6081E8
:104A700071818281938120E030E040E251E40E9424
:104A80001F02DC01CB018E01075A1F4FBC01CD0173
:104A90000E944900DC01CB01F801918380831FC093
:104AA000FE01E95AFF4F88EC90E091838083FE017C
:104AB000E95AFF4F808191810197F1F7FE01E95A90
:104AC000FF4F91838083DE01A75ABF4FFE01E75A53
:104AD000FF4F80819181019711969C938E93FE01E7
:104AE000E75AFF4F808191810097D1F6ADCE8E01BC
:104AF000075A1F4FFE01E55AFF4F60817181828185
:104B000093810E944900DC01CB01F80191838083ED
:104B1000DE01AB5ABF4FFE01E75AFF4F8081918102
:104B200011969C938E93FE01EB5AFF4F80819181E9
:104B30000197F1F7FE01EB5AFF4F9183808384CEFA
:104B4000FE01E65AFE4F8081823309F0A1C2FE01C8
:104B5000E65AFE4F8FEF80830E946E1188E092E04C
:104B60000E94F61182E061E00E941312FE01EE5AEB
:104B7000FE4F10822FC00E94780CFE01E65AFE4FB5
:104B80008083FE01E65AFE4F80818F3FA1F3FE0134
:104B9000EE5AFE4F8081282F30E0CE01805A9E4F82
:104BA000DC01A20FB31FFE01E65AFE4F80818C93F9
:104BB0008AEA90E00E94F611FE01E65AFE4F8FEF5E
:104BC0008083DE01AE5ABE4FFE01EE5AFE4F808159
:104BD0008F5F8C93FE01EE5AFE4F8081843088F205
:104BE000FE01E05AFE4F90818091BE02981709F0B5
:104BF000CEC1FE01E05AFE4F91818091BF0298170D
:104C000009F0C5C1FE01E05AFE4F92818091C002B9
:104C1000981709F0BCC1FE01E05AFE4F93818091C4
:104C2000C102981709F0B3C10E946E1188E192E0A9
:104C30000E94F61182E061E00E94131288E292E085
:104C40000E94F611FE01EF5AFF4F80E090E0AAE7C4
:104C5000B4E480839183A283B3838E01035B1F4FEF
:104C6000FE01EF5AFF4F608171818281938120E0C4
:104C700030E04AEF54E40E941F02DC01CB01F8014E
:104C800080839183A283B383FE01E35BFF4F608146
:104C900071818281938120E030E040E85FE30E94EF
:104CA0002504882344F4FE01E55BFF4F81E090E09A
:104CB0009183808364C0FE01E35BFF4F608171815B
:104CC0008281938120E03FEF4FE757E40E94C503C4
:104CD00018160CF043C0FE01EF5AFF4F608171813E
:104CE0008281938120E030E040E251E40E941F0283
:104CF000DC01CB018E01055B1F4FBC01CD010E9481
:104D00004900DC01CB01F801918380831FC0FE01C3
:104D1000E75BFF4F88EC90E091838083FE01E75BC7
:104D2000FF4F808191810197F1F7FE01E75BFF4F13
:104D300091838083DE01A55BBF4FFE01E55BFF4FE2
:104D400080819181019711969C938E93FE01E55B82
:104D5000FF4F808191810097D1F627C08E01055BBE
:104D60001F4FFE01E35BFF4F608171818281938160
:104D70000E944900DC01CB01F80191838083DE01B0
:104D8000A95BBF4FFE01E55BFF4F808191818D9351
:104D90009C93FE01E95BFF4F808191810197F1F7C0
:104DA000FE01E95BFF4F918380830E946E1184E3D3
:104DB00092E00E94F61182E061E00E941312FE016F
:104DC000EF5AFE4F10822FC00E94780CFE01E65A67
:104DD000FE4F8083FE01E65AFE4F80818F3FA1F394
:104DE000FE01EF5AFE4F8081282F30E0CE018C5912
:104DF0009E4FDC01A20FB31FFE01E65AFE4F8081D9
:104E00008C938AEA90E00E94F611FE01E65AFE4F6A
:104E10008FEF8083DE01AF5ABE4FFE01EF5AFE4F87
:104E200080818F5F8C93FE01EF5AFE4F808184302A
:104E300088F2FE01EC59FE4F80818093BE02FE0194
:104E4000EC59FE4F81818093BF02FE01EC59FE4F69
:104E500082818093C002FE01EC59FE4F83818093D2
:104E6000C1020E946E1184E492E00E94F61182E079
:104E700062E00E94131285E592E00E94F611FE01A5
:104E8000ED5BFF4F80E090E0AAEFB4E48083918374
:104E9000A283B3838E01015C1F4FFE01ED5BFF4FC8
:104EA000608171818281938120E030E04AEF54E497
:104EB0000E941F02DC01CB01F80180839183A28351
:104EC000B383FE01FF96608171818281938120E02E
:104ED00030E040E85FE30E94250488232CF481E061
:104EE00090E09EAF8DAF47C0FE01FF96608171815B
:104EF0008281938120E03FEF4FE757E40E94C50392
:104F000018166CF5FE01ED5BFF4F608171818281A7
:104F1000938120E030E040E251E40E941F02DC0176
:104F2000CB01BC01CD010E944900DC01CB019EAF49
:104F30008DAF0FC088EC90E09CAF8BAF8BAD9CAD7C
:104F40000197F1F79CAF8BAF8DAD9EAD01979EAFF2
:104F50008DAF8DAD9EAD009769F70C94C614FE0120
:104F6000FF9660817181828193810E944900DC01FA
:104F7000CB019EAF8DAF8DAD9EAD9AAF89AF89ADA0
:104F80009AAD0197F1F79AAF89AF0C94C6140E94BD
:104F90006E1181ED91E00E94F61182E063E00E94C3
:104FA00013128BE191E00E94F61180E090E0AAE7F5
:104FB000B4E48DAB9EABAFABB8AF6DA97EA98FA9A2
:104FC00098AD20E030E04AEF54E40E941F02DC017B
:104FD000CB0189AB9AABABABBCAB69A97AA98BA966
:104FE0009CA920E030E040E85FE30E94250488238C
:104FF0002CF481E090E098AB8FA73FC069A97AA913
:105000008BA99CA920E03FEF4FE757E40E94C5031E
:1050100018164CF56DA97EA98FA998AD20E030E057
:1050200040E251E40E941F02DC01CB01BC01CD0132
:105030000E944900DC01CB0198AB8FA70FC088EC20
:1050400090E09EA78DA78DA59EA50197F1F79EA73D
:105050008DA78FA598A9019798AB8FA78FA598A921
:10506000009769F774CD69A97AA98BA99CA90E94B8
:105070004900DC01CB0198AB8FA78FA598A99CA70D
:105080008BA78BA59CA50197F1F79CA78BA75FCD5C
:10509000FE01E65AFE4F8081833439F4FE01E65A60
:1050A000FE4F8FEF80830C94B614FE01E65AFE4F3C
:1050B0008FEF80830E946E1182E692E00E94F611CB
:1050C00080E090E0AAE7B4E48FA398A7A9A7BAA7C5
:1050D0006FA178A589A59AA520E030E04AEF54E4B5
:1050E0000E941F02DC01CB018BA39CA3ADA3BEA336
:1050F0006BA17CA18DA19EA120E030E040E85FE3A0
:105100000E94250488232CF481E090E09AA389A3CF
:105110003FC06BA17CA18DA19EA120E03FEF4FE796
:1051200057E40E94C50318164CF56FA178A589A510
:105130009AA520E030E040E251E40E941F02DC0129
:10514000CB01BC01CD010E944900DC01CB019AA337
:1051500089A30FC088EC90E098A38F8F8F8D98A1C2
:105160000197F1F798A38F8F89A19AA101979AA32C
:1051700089A389A19AA1009769F714C06BA17CA1AA
:105180008DA19EA10E944900DC01CB019AA389A3B5
:1051900089A19AA19E8F8D8F8D8D9E8D0197F1F79C
:1051A0009E8F8D8F0E946E1180E792E00E94F61113
:1051B00080E090E0AAE7B4E4898F9A8FAB8FBC8F30
:1051C000698D7A8D8B8D9C8D20E030E04AEF54E420
:1051D0000E941F02DC01CB018D8B9E8BAF8BB88FA1
:1051E0006D897E898F89988D20E030E040E85FE30B
:1051F0000E94250488232CF481E090E09C8B8B8B0B
:1052000040C06D897E898F89988D20E03FEF4FE700
:1052100057E40E94C503181654F5698D7A8D8B8D5D
:105220009C8D20E030E040E251E40E941F02DC014E
:10523000CB01BC01CD010E944900DC01CB019C8B5C
:105240008B8B0FC088EC90E09A8B898B89899A8927
:105250000197F1F79A8B898B8B899C8901979C8B9D
:105260008B8B8B899C89009769F70C94C6146D8988
:105270007E898F89988D0E944900DC01CB019C8B2F
:105280008B8B8B899C89988B8F878F8598890197C9
:10529000F1F7988B8F870C94C61480E067E00E942A
:1052A000A409FE01E55AFE4F8083FE01E55AFE4F38
:1052B0008081882311F40C94B6140E946E118EE73D
:1052C00092E00E94F61180E00E948E06FE01E95AEB
:1052D000FE4F91838083FE01E95AFE4F80819181C8
:1052E000CC01A0E0B0E024EF31E040E050E0BC01B0
:1052F000CD010E94492ADC01CB01072E7AE0B69548
:10530000A795979587957A95D1F7702DFE01EB5A61
:10531000FE4F9183808381E06DE00E941312FE01B5
:10532000EB5AFE4F808191810E943B1281E060E147
:105330000E9413128BE892E00E94F61182E061E075
:105340000E9413128DE892E00E94F61181E00E9403
:105350008E06FE01E95AFE4F91838083FE01E95AD1
:10536000FE4F20813181C901880F991F880F991F35
:10537000820F931FFE01EB5AFE4F892F99278695C6
:1053800086959183808382E068E00E941312FE017B
:10539000EB5AFE4F808191810E943B1282E06AE0CD
:1053A0000E94131284E992E00E94F61180E090E0DE
:1053B000AAE7B4E48B879C87AD87BE876B857C8525
:1053C0008D859E8520E030E04AEF54E40E941F0264
:1053D000DC01CB018F839887A987BA876F81788595
:1053E00089859A8520E030E040E85FE30E9425044B
:1053F00088232CF481E090E09E838D833FC06F81F1
:10540000788589859A8520E03FEF4FE757E40E9431
:10541000C50318164CF56B857C858D859E8520E02F
:1054200030E040E251E40E941F02DC01CB01BC01EC
:10543000CD010E944900DC01CB019E838D830FC00A
:1054400088EC90E09C838B838B819C810197F1F7A2
:105450009C838B838D819E8101979E838D838D811B
:105460009E81009769F719CF6F81788589859A8524
:105470000E944900DC01CB019E838D838D819E813A
:105480009A83898389819A810197F1F79A83898325
:1054900004CF629FD001739FF001829FE00DF11D48
:1054A000649FE00DF11D929FF00D839FF00D749F9E
:1054B000F00D659FF00D9927729FB00DE11DF91F4A
:1054C000639FB00DE11DF91FBD01CF0111240895A7
:1054D000AA1BBB1B51E107C0AA1FBB1FA617B7071A
:1054E00010F0A61BB70B881F991F5A95A9F7809536
:1054F0009095BC01CD010895A1E21A2EAA1BBB1BF9
:10550000FD010DC0AA1FBB1FEE1FFF1FA217B3078F
:10551000E407F50720F0A21BB30BE40BF50B661FA5
:10552000771F881F991F1A9469F760957095809569
:1055300090959B01AC01BD01CF0108952F923F9240
:105540004F925F926F927F928F929F92AF92BF9293
:10555000CF92DF92EF92FF920F931F93CF93DF933F
:10556000CDB7DEB7CA1BDB0B0FB6F894DEBF0FBE9C
:10557000CDBF09942A88398848885F846E847D84E9
:105580008C849B84AA84B984C884DF80EE80FD80EB
:105590000C811B81AA81B981CE0FD11D0FB6F89461
:0E55A000DEBF0FBECDBFED010895F894FFCF22
:1055AE002020202057454C434F4D452020202000E1
:1055BE0043686F6F736520596F7572204D6F646508
:1055CE0000312D456E746572205061737300322D5B
:1055DE004368616E6765205061737300456E746534
:1055EE00722055722050617373002A002057454C6B
:1055FE00434F4D45204241434B2000486170707926
:10560E0020546F20536565205500446F6F722049FA
:10561E0073204F70656E696E6700312D4143003205
:10562E002D4C445200332D46616E00342D4C69676B
:10563E00687400352D4C4D333500312D4143204FCC
:10564E004E00322D4143204F46460020496E766172
:10565E006C696420496E7075742000547279204113
:10566E006761696E004C44522049532043484543BC
:10567E004B494E4700506C656173652057616974E4
:10568E002E2E2E00312D46414E204F4E00322D46ED
:10569E00414E204F464600312D4C69676874204FAD
:1056AE004E00322D4C69676874204F4646004C4DB3
:1056BE00333520497320436865636B696E6700500C
:1056CE006C6561736520776169742E2E2E00474FCD
:1056DE004F442057454154484552004143204F46C0
:1056EE004600484F542057454154484552004143C7
:1056FE00204F4E0043616C6C696E6720393131006A
:10570E00546865792057696C6C204B696C6C2075F8
:10571E000057726F6E672050617373776F726400FB
:10572E00202054727920416761696E2020004578EF
:10573E00636565646564204E756D62657200204F09
:10574E006620547269657300456E746572204F6CE5
:10575E006420506173733A0057656C636F6D6520FA
:10576E00546F2050617373004368616E67652050FB
:10577E0061676500456E746572204E6577205061D5
:10578E0073733A0050617373776F7264204368616C
:10579E006E676564005375636365737366756C6CD1
:1057AE007900496E76616C696420496E707574007B
:1057BE00547279204361726566756C6C790054651C
:1057CE006D70657261747572653A0043004C69675D
:1057DE0068743A00566F6C740043434343000000F4
:1057EE000000000000003738392F3435362A3132A8
:1057FE00332D43303D2B00010203040506073132E1
:02580E00333431
:00000001FF
